:060000000A128A110C280F
:10000800FE00030EF6000A08F7000A128A11C92832
:100018000A128A110F2883135630FD000030FE00A3
:10002800F530FF00403084000A128A110F210A12AD
:100038008A110A128A1126210A128A11F0000A125C
:100048008A1127210A128A11F1000A128A1128211D
:100058000A128A11F2000A128A1129210A128A1137
:10006800F3002030840040300A128A111E210A123F
:100078008A11F801F90183010A128A1143288316AB
:100088000313870188010730860040308312031369
:1000980088004030870086010130D9000030DA003E
:1000A800061C57285828C6281A3083120313D7006D
:1000B800F730D600D60B5E28D70B5E28632883124C
:1000C8000313061C68286928C628DB01DC01831293
:1000D80003135B08403E8400831300088800023045
:1000E80083120313D8000430D700B930D600D60BDA
:1000F8007B28D70B7B28D80B7B28822883120313F5
:100108005C08803AFF0080307F02031D8D2809308B
:100118005B02031C90289128B12883120313590805
:10012800403E84008313000887000130D907031874
:10013800DA0A0030DA07FF30DB00FF30DC005A084B
:10014800803AFF0080307F02031DAC280B30590233
:10015800031CAF28B028B128C62801308312031326
:10016800DB070318DC0A0030DC075C08803AFF0074
:1001780080307F02031DC2280A305B02031CC52899
:10018800C6286B280A128A110C288B1DCC28CD286A
:10019800EE280B1CD028D128EE288312031306085A
:1001A8000639F400F5017408F8007508F900023002
:1001B80078067904031DE128E228E528FF30880045
:1001C800ED28043078067904031DEB28EC28ED2887
:1001D80009150B1077088A00760E8300FE0E7E0E36
:1001E800090040347934A434B034993492348234D8
:1001F800F8340034903401340234043408341034B0
:1002080020344034803401340234043408347E0805
:100218008A007F0882000A128A110B210A128A11A9
:100228008000840A04087D0603190034FF0A0319B4
:10023800FE0A0F2964008001840A040603190034A9
:0C02480004061F29103420344034803498
:00000001FF
