:060000000A128A11B62F5E
:100EA40064008001840A0406031900340406532FE5
:100EB400013402340434083410342034403480348F
:100EC400013402340434083410342034403480347F
:100ED4007E088A007F0882000A128A116A270A1291
:100EE4008A118000840A04087D0603190034FF0A6D
:100EF4000319FE0A6E2F8316031389010730860037
:100F040083120313890189148230F900DD30F8005B
:100F1400F80B8A2FF90B8A2F8F2F831203130911D1
:100F24008230F900DD30F800F80B962FF90B962F7C
:100F34009B2F8312031389108230F900DD30F800EF
:100F4400F80BA22FF90BA22FA72F83120313091555
:100F54008230F900DD30F800F80BAE2FF90BAE2F1C
:100F6400B32F0A128A11002883134830FD0007307A
:100F7400FE005A30FF00403084000A128A116E27A6
:100F84000A128A110A128A1162270A128A11F000BF
:100F94000A128A1163270A128A11F1000A128A11AD
:100FA40064270A128A11F2000A128A1165270A12AA
:100FB4008A11F3000A128A1166270A128A11F400B0
:100FC4000A128A1167270A128A11F5000A128A1175
:100FD40068270A128A11F6000A128A1169270A126E
:100FE4008A11F7002030840040300A128A115227F7
:0C0FF4000A128A1183010A128A117D2F53
:00000001FF
